{
  "contractName": "BondContract",
  "abi": [
    {
      "inputs": [],
      "stateMutability": "nonpayable",
      "type": "constructor"
    },
    {
      "anonymous": false,
      "inputs": [
        {
          "indexed": false,
          "internalType": "uint256",
          "name": "bondId",
          "type": "uint256"
        },
        {
          "indexed": false,
          "internalType": "address",
          "name": "buyer",
          "type": "address"
        },
        {
          "indexed": false,
          "internalType": "uint256",
          "name": "value",
          "type": "uint256"
        }
      ],
      "name": "BondPurchased",
      "type": "event"
    },
    {
      "anonymous": false,
      "inputs": [
        {
          "indexed": false,
          "internalType": "uint256",
          "name": "bondId",
          "type": "uint256"
        },
        {
          "indexed": false,
          "internalType": "address",
          "name": "seller",
          "type": "address"
        },
        {
          "indexed": false,
          "internalType": "uint256",
          "name": "value",
          "type": "uint256"
        }
      ],
      "name": "BondSold",
      "type": "event"
    },
    {
      "inputs": [],
      "name": "bondCounter",
      "outputs": [
        {
          "internalType": "uint256",
          "name": "",
          "type": "uint256"
        }
      ],
      "stateMutability": "view",
      "type": "function",
      "constant": true
    },
    {
      "inputs": [
        {
          "internalType": "uint256",
          "name": "",
          "type": "uint256"
        }
      ],
      "name": "bonds",
      "outputs": [
        {
          "internalType": "uint256",
          "name": "id",
          "type": "uint256"
        },
        {
          "internalType": "string",
          "name": "name",
          "type": "string"
        },
        {
          "internalType": "uint256",
          "name": "value",
          "type": "uint256"
        },
        {
          "internalType": "uint256",
          "name": "purchaseTime",
          "type": "uint256"
        },
        {
          "internalType": "uint256",
          "name": "maturityTime",
          "type": "uint256"
        },
        {
          "internalType": "uint256",
          "name": "interestRate",
          "type": "uint256"
        },
        {
          "internalType": "address",
          "name": "owner",
          "type": "address"
        },
        {
          "internalType": "bool",
          "name": "isActive",
          "type": "bool"
        }
      ],
      "stateMutability": "view",
      "type": "function",
      "constant": true
    },
    {
      "inputs": [
        {
          "internalType": "address",
          "name": "",
          "type": "address"
        },
        {
          "internalType": "uint256",
          "name": "",
          "type": "uint256"
        }
      ],
      "name": "userBonds",
      "outputs": [
        {
          "internalType": "uint256",
          "name": "",
          "type": "uint256"
        }
      ],
      "stateMutability": "view",
      "type": "function",
      "constant": true
    },
    {
      "inputs": [
        {
          "internalType": "string",
          "name": "_name",
          "type": "string"
        },
        {
          "internalType": "uint256",
          "name": "_value",
          "type": "uint256"
        },
        {
          "internalType": "uint256",
          "name": "_maturityTime",
          "type": "uint256"
        },
        {
          "internalType": "uint256",
          "name": "_interestRate",
          "type": "uint256"
        }
      ],
      "name": "purchaseBond",
      "outputs": [
        {
          "internalType": "uint256",
          "name": "",
          "type": "uint256"
        }
      ],
      "stateMutability": "payable",
      "type": "function",
      "payable": true
    },
    {
      "inputs": [
        {
          "internalType": "uint256",
          "name": "_bondId",
          "type": "uint256"
        }
      ],
      "name": "sellBond",
      "outputs": [],
      "stateMutability": "nonpayable",
      "type": "function"
    },
    {
      "inputs": [
        {
          "internalType": "uint256",
          "name": "_bondId",
          "type": "uint256"
        }
      ],
      "name": "calculateCurrentValue",
      "outputs": [
        {
          "internalType": "uint256",
          "name": "",
          "type": "uint256"
        }
      ],
      "stateMutability": "view",
      "type": "function",
      "constant": true
    },
    {
      "inputs": [
        {
          "internalType": "address",
          "name": "_user",
          "type": "address"
        }
      ],
      "name": "getUserBonds",
      "outputs": [
        {
          "internalType": "uint256[]",
          "name": "",
          "type": "uint256[]"
        }
      ],
      "stateMutability": "view",
      "type": "function",
      "constant": true
    },
    {
      "inputs": [
        {
          "internalType": "uint256",
          "name": "_bondId",
          "type": "uint256"
        }
      ],
      "name": "getBondDetails",
      "outputs": [
        {
          "internalType": "uint256",
          "name": "id",
          "type": "uint256"
        },
        {
          "internalType": "string",
          "name": "name",
          "type": "string"
        },
        {
          "internalType": "uint256",
          "name": "value",
          "type": "uint256"
        },
        {
          "internalType": "uint256",
          "name": "purchaseTime",
          "type": "uint256"
        },
        {
          "internalType": "uint256",
          "name": "maturityTime",
          "type": "uint256"
        },
        {
          "internalType": "uint256",
          "name": "interestRate",
          "type": "uint256"
        },
        {
          "internalType": "address",
          "name": "owner",
          "type": "address"
        },
        {
          "internalType": "bool",
          "name": "isActive",
          "type": "bool"
        }
      ],
      "stateMutability": "view",
      "type": "function",
      "constant": true
    }
  ],
  "bytecode": "0x608060405234801561001057600080fd5b506000600255610c1e806100256000396000f3fe60806040526004361061007b5760003560e01c80635f1c17c01161004e5780635f1c17c01461011257806397c7b55114610132578063af81e1751461015f578063d548bc80146101815761007b565b80630436f2f6146100805780633526a7ca146100bd5780634b8e468b146100ea5780635831d885146100fd575b600080fd5b34801561008c57600080fd5b506100a061009b366004610945565b6101a1565b6040516100b4989796959493929190610a5b565b60405180910390f35b3480156100c957600080fd5b506100dd6100d8366004610864565b6102b3565b6040516100b49190610a33565b6100dd6100f836600461088d565b6102e4565b34801561010957600080fd5b506100dd61045f565b34801561011e57600080fd5b506100a061012d366004610945565b610465565b34801561013e57600080fd5b5061015261014d366004610843565b61053f565b6040516100b49190610970565b34801561016b57600080fd5b5061017f61017a366004610945565b6105ac565b005b34801561018d57600080fd5b506100dd61019c366004610945565b61069c565b6000606060008060008060008060008060008b8152602001908152602001600020905080600001548160010182600201548360030154846004015485600501548660060160009054906101000a90046001600160a01b03168760060160149054906101000a900460ff1686805461021790610b66565b80601f016020809104026020016040519081016040528092919081815260200182805461024390610b66565b80156102905780601f1061026557610100808354040283529160200191610290565b820191906000526020600020905b81548152906001019060200180831161027357829003601f168201915b505050505096509850985098509850985098509850985050919395975091939597565b600160205281600052604060002081815481106102cf57600080fd5b90600052602060002001600091509150505481565b60008334101561030f5760405162461bcd60e51b8152600401610306906109dd565b60405180910390fd5b600280546000918261032083610ba1565b90915550604080516101008101825282815260208082018a81528284018a90524260608401526080830189905260a083018890523360c0840152600160e0840181905260008681528084529490942083518155905180519596509294909361038d93908501920190610793565b506040828101516002830155606083015160038301556080830151600483015560a0830151600583015560c08301516006909201805460e0909401511515600160a01b0260ff60a01b196001600160a01b039094166001600160a01b03199095169490941792909216929092179055336000818152600160208181528483208054928301815583529091200183905590517f768272733567844d2deeba1934fa6a35dbb79668bef8b889aa58f8b12f4208829161044e918491908990610a3c565b60405180910390a195945050505050565b60025481565b6000602081905290815260409020805460018201805491929161048790610b66565b80601f01602080910402602001604051908101604052809291908181526020018280546104b390610b66565b80156105005780601f106104d557610100808354040283529160200191610500565b820191906000526020600020905b8154815290600101906020018083116104e357829003601f168201915b50505060028401546003850154600486015460058701546006909701549596929591945092506001600160a01b0381169060ff600160a01b9091041688565b6001600160a01b03811660009081526001602090815260409182902080548351818402810184019094528084526060939283018282801561059f57602002820191906000526020600020905b81548152602001906001019080831161058b575b505050505090505b919050565b600081815260208190526040902060068101546001600160a01b031633146105e65760405162461bcd60e51b815260040161030690610a0b565b6006810154600160a01b900460ff166106115760405162461bcd60e51b8152600401610306906109b4565b600061061c8361069c565b60068301805460ff60a01b19169055604051909150339082156108fc029083906000818181858888f1935050505015801561065b573d6000803e3d6000fd5b507ff7c500df872a4ba8a01ae5a95cd7cd742cf32dc1007bb58e8ea51c3d1973a7e583338360405161068f93929190610a3c565b60405180910390a1505050565b60008181526020819052604081206006810154600160a01b900460ff166106d55760405162461bcd60e51b8152600401610306906109b4565b60008160030154426106e79190610b4f565b90506000826003015483600401546106ff9190610b4f565b90508082106107415760648360050154846002015461071e9190610b30565b6107289190610b10565b83600201546107379190610af8565b93505050506105a7565b600061074e826064610b30565b83856005015486600201546107639190610b30565b61076d9190610b30565b6107779190610b10565b90508084600201546107899190610af8565b9695505050505050565b82805461079f90610b66565b90600052602060002090601f0160209004810192826107c15760008555610807565b82601f106107da57805160ff1916838001178555610807565b82800160010185558215610807579182015b828111156108075782518255916020019190600101906107ec565b50610813929150610817565b5090565b5b808211156108135760008155600101610818565b80356001600160a01b03811681146105a757600080fd5b600060208284031215610854578081fd5b61085d8261082c565b9392505050565b60008060408385031215610876578081fd5b61087f8361082c565b946020939093013593505050565b600080600080608085870312156108a2578182fd5b843567ffffffffffffffff808211156108b9578384fd5b818701915087601f8301126108cc578384fd5b81356020828211156108e0576108e0610bd2565b604051601f8301601f191681018201848111828210171561090357610903610bd2565b60405282815284830182018b1015610919578687fd5b828286018383013791820181019590955298938701359750505060408501359460600135935090915050565b600060208284031215610956578081fd5b5035919050565b6001600160a01b03169052565b15159052565b6020808252825182820181905260009190848201906040850190845b818110156109a85783518352928401929184019160010161098c565b50909695505050505050565b6020808252600f908201526e426f6e64206e6f742061637469766560881b604082015260600190565b602080825260149082015273125b9cdd59999a58da595b9d081c185e5b595b9d60621b604082015260600190565b6020808252600e908201526d2737ba103137b7321037bbb732b960911b604082015260600190565b90815260200190565b9283526001600160a01b03919091166020830152604082015260600190565b60006101008a8352602081818501528a5180838601528392505b80831015610a94578b8301820151858401610120015291810191610a75565b80831115610aa6578361012082870101525b610120601f19601f83011686010193505050508760408301528660608301528560808301528460a0830152610ade60c083018561095d565b610aeb60e083018461096a565b9998505050505050505050565b60008219821115610b0b57610b0b610bbc565b500190565b600082610b2b57634e487b7160e01b81526012600452602481fd5b500490565b6000816000190483118215151615610b4a57610b4a610bbc565b500290565b600082821015610b6157610b61610bbc565b500390565b600281046001821680610b7a57607f821691505b60208210811415610b9b57634e487b7160e01b600052602260045260246000fd5b50919050565b6000600019821415610bb557610bb5610bbc565b5060010190565b634e487b7160e01b600052601160045260246000fd5b634e487b7160e01b600052604160045260246000fdfea26469706673582212202ad8a0230c743d5a432ea270dd6fdc41b91fd1f0ee8b4fef6f3db271bdb98e1f64736f6c63430008000033",
  "immutableReferences": {},
  "source": "// SPDX-License-Identifier: MIT\r\npragma solidity ^0.8.0;\r\n\r\ncontract BondContract {\r\n    struct Bond {\r\n        uint256 id;\r\n        string name;\r\n        uint256 value;\r\n        uint256 purchaseTime;\r\n        uint256 maturityTime;\r\n        uint256 interestRate;\r\n        address owner;\r\n        bool isActive;\r\n    }\r\n\r\n    mapping(uint256 => Bond) public bonds;\r\n    mapping(address => uint256[]) public userBonds;\r\n    uint256 public bondCounter;\r\n\r\n    event BondPurchased(uint256 bondId, address buyer, uint256 value);\r\n    event BondSold(uint256 bondId, address seller, uint256 value);\r\n\r\n    constructor() {\r\n        bondCounter = 0;\r\n    }\r\n\r\n    function purchaseBond(\r\n        string memory _name,\r\n        uint256 _value,\r\n        uint256 _maturityTime,\r\n        uint256 _interestRate\r\n    ) public payable returns (uint256) {\r\n        require(msg.value >= _value, \"Insufficient payment\");\r\n\r\n        uint256 bondId = bondCounter++;\r\n        bonds[bondId] = Bond({\r\n            id: bondId,\r\n            name: _name,\r\n            value: _value,\r\n            purchaseTime: block.timestamp,\r\n            maturityTime: _maturityTime,\r\n            interestRate: _interestRate,\r\n            owner: msg.sender,\r\n            isActive: true\r\n        });\r\n\r\n        userBonds[msg.sender].push(bondId);\r\n        emit BondPurchased(bondId, msg.sender, _value);\r\n        return bondId;\r\n    }\r\n\r\n    function sellBond(uint256 _bondId) public {\r\n        Bond storage bond = bonds[_bondId];\r\n        require(bond.owner == msg.sender, \"Not bond owner\");\r\n        require(bond.isActive, \"Bond not active\");\r\n\r\n        uint256 currentValue = calculateCurrentValue(_bondId);\r\n        bond.isActive = false;\r\n        payable(msg.sender).transfer(currentValue);\r\n\r\n        emit BondSold(_bondId, msg.sender, currentValue);\r\n    }\r\n\r\n    function calculateCurrentValue(uint256 _bondId) public view returns (uint256) {\r\n        Bond storage bond = bonds[_bondId];\r\n        require(bond.isActive, \"Bond not active\");\r\n\r\n        uint256 timeElapsed = block.timestamp - bond.purchaseTime;\r\n        uint256 totalTime = bond.maturityTime - bond.purchaseTime;\r\n        \r\n        if (timeElapsed >= totalTime) {\r\n            return bond.value + (bond.value * bond.interestRate / 100);\r\n        }\r\n\r\n        uint256 partialInterest = (bond.value * bond.interestRate * timeElapsed) / (totalTime * 100);\r\n        return bond.value + partialInterest;\r\n    }\r\n\r\n    function getUserBonds(address _user) public view returns (uint256[] memory) {\r\n        return userBonds[_user];\r\n    }\r\n\r\n    function getBondDetails(uint256 _bondId) public view returns (\r\n        uint256 id,\r\n        string memory name,\r\n        uint256 value,\r\n        uint256 purchaseTime,\r\n        uint256 maturityTime,\r\n        uint256 interestRate,\r\n        address owner,\r\n        bool isActive\r\n    ) {\r\n        Bond storage bond = bonds[_bondId];\r\n        return (\r\n            bond.id,\r\n            bond.name,\r\n            bond.value,\r\n            bond.purchaseTime,\r\n            bond.maturityTime,\r\n            bond.interestRate,\r\n            bond.owner,\r\n            bond.isActive\r\n        );\r\n    }\r\n}\r\n",
  "sourcePath": "c:\\Users\\aksha\\Desktop\\blockvest\\contracts\\BondContract.sol",
  "compiler": {
    "name": "solc",
    "version": "0.8.0+commit.c7dfd78e.Emscripten.clang"
  },
  "schemaVersion": "3.4.16",
  "updatedAt": "2024-12-22T01:34:25.891Z",
  "networkType": "ethereum",
  "devdoc": {
    "kind": "dev",
    "methods": {},
    "version": 1
  },
  "userdoc": {
    "kind": "user",
    "methods": {},
    "version": 1
  }
}